S00C0000323034382E737265634A
S11300000C943C000C9459000C9459000C94590025
S11300100C9459000C9459000C9459000C945900F8
S11300200C9459000C9459000C9459000C945900E8
S11300300C9459000C9459000C9459000C945900D8
S11300400C9459000C9459000C9459000C94EC0035
S11300500C9459000102A602050209020D021102C4
S1130060150219021D022B023902460253026102D3
S11300706F027C028902960211241FBECFE5D4E0F0
S1130080DEBFCDBF10E0A0E6B0E0E4EFF6E102C0D1
S113009005900D92AA36B107D9F723E0AAE6B0E09D
S11300A001C01D92AF3DB207E1F70E94C3080C9452
S11300B0780B0C9400008CEF81BB12BA8FEF84BBD9
S11300C015BA17BA9FE098BB1ABA8BBB80B78B7F5F
S11300D080BF0895E5E1F1E0119281E0E532F8078F
S11300E0D9F71092A903109273001092AA030895ED
S11300F0EFEAF3E0119283E0EF3DF807D9F70895B2
S11301000F931F930091250110912601209127013F
S113011030912801060F171F281F391F80912501D0
S113012090912601A0912701B09128018017910791
S1130130A207B30798F31F910F9108958AE083BF34
S113014088E28CBF89B7826089BF78940E94780066
S11301501092140110926A00109225011092260147
S1130160109227011092280180E090E02091140160
S1130170FC0138E0239FE00DF11D1124E155FC4FF3
S11301802081FC01E559FF4F2083019688309105B9
S113019069F780916B008111AA9A80916C0081119A
S11301A0A99A80916D008111AE9A80916E0081119F
S11301B0AC9A80916F008111AB9A8091700081118B
S11301C0A89A809171008111AF9A80917200811177
S11301D0AD9A80E482BB08951F920F920FB60F92DE
S11301E011242F933F938F939F93AF93BF93EF93D8
S11301F0FF93CF93DF93CDB7DEB72697DEBFCDBF96
S113020086E0E4E6F0E0DE01119601900D928A9515
S1130210E1F780916A008F5F80936A0080916A00A1
S1130220823308F460C015BA12BA10926A00809141
S113023014018F5F8093140180911401863008F4B7
S11302408BC01092140188C020911401FC0138E085
S1130250239FE00DF11D1124E155FC4F2081FC0189
S1130260E559FF4F208301968830910569F7809105
S11302706B00811184E090916C00911182609091E7
S11302806D009111806490916E0091118061909144
S11302906F0091118860909170009111816090912C
S11302A07100911180689091720091118062909117
S11302B01401FE01E90FF11D918192BB85BB809170
S11302C0250190912601A0912701B0912801019662
S11302D0A11DB11D8093250190932601A0932701B0
S11302E0B09328013CC090916B0080916A009813F0
S11302F001C0AA9890916C0080916A00981301C083
S1130300A99890916D0080916A00981301C0AE98ED
S113031090916E0080916A00981301C0AC989091FE
S11303206F0080916A00981301C0AB98909170009F
S113033080916A00981301C0A898909171008091EF
S11303406A00981301C0AF989091720080916A007E
S1130350981305C0AD9803C080E090E075CF269651
S11303600FB6F894DEBF0FBECDBFDF91CF91FF91E2
S1130370EF91BF91AF919F918F913F912F910F90EA
S11303800FBE0F901F901895FF920F931F93CF935A
S1130390DF93F82E062F142F60912501709126010A
S11303A0809127019091280124EF31E040E050E052
S11303B00E945E0AC4EFD1E0C61BD70B60912501F1
S11303C070912601809127019091280128EE33E055
S11303D040E050E00E945E0A9B01653F41E07407E3
S11303E030F088EE93E0AC01421B530B9A01E12FED
S11303F0F0E0E231F10508F0A5C0E65DFF4F0C9492
S1130400800A20E080E030E0A4C028E280E030E010
S1130410A0C020E088E230E09CC020E084E134E128
S113042098C024E180E034E194C024E184E130E028
S113043090C02FE08FE03FE08CC0ADECBCEC0E949C
S1130440860A969587959695879596958795382FDC
S113045020E080E07EC0ADECBCEC0E94860A96955C
S113046087959695879596958795282F80E030E017
S113047070C0ADECBCEC0E94860A96958795969563
S113048087959695879520E030E063C0ADECBCEC91
S11304900E94860A929582958F7089279F7089277A
S11304A0382F20E056C0ADECBCEC0E94860A929531
S11304B082958F7089279F708927382F282F80E095
S11304C048C0ADECBCEC0E94860A9C013295229592
S11304D02F7023273F702327822F30E03AC0A9E8EA
S11304E0B8E80E94860A929582958F7089279F703A
S11304F08927382F282F2DC09E01ADECBCEC0E941B
S1130500860A9695879596958795382F20E080E002
S113051020C09E01ADECBCEC0E94860A969587959E
S113052096958795282F80E030E013C09E01ADECAE
S1130530BCEC0E94860A969587959695879520E04F
S113054030E007C024E684E634E603C020E080E01F
S113055038E29F2D943008F093E0043008F003E073
S11305600230A0F10250000F000F090F053051F4C2
S113057036953093CC0326952093D40386958093A7
S1130580DC0329C093E010E03695F80158E0959F0C
S1130590E00DF11D1124E155FC4F3083392F3F5FED
S11305A08695F80148E0349FE00DF11D1124E155D2
S11305B0FC4F80839E5F269558E0959F000D111D8A
S11305C01124F801E155FC4F208305C0000F000FF2
S11305D0090F90E0D8CFDF91CF911F910F91FF9039
S11305E00895BF92CF92DF92EF92FF920F931F93E1
S11305F0CF93DF9300E010E0C12CD12C13C0F7019E
S1130600EC0FFD1FEB5EFE4F40816C2F8B2D0E9483
S1130610C4012196C430D10591F70F5F1F4F0430F8
S1130620110541F0B02EE6017801EE0CFF1CEE0C32
S1130630FF1CE5CFDF91CF911F910F91FF90EF90B9
S1130640DF90CF90BF9008958091AA0390E0019627
S113065068E270E00E944A0A8093730090917300EC
S11306608091A90398130AC08091A90390E0019690
S113067068E270E00E944A0A8093A903A091730083
S113068080E1A89FD0011124A75DBE4FE5E1F1E010
S113069085E291E021912D93E817F907D9F7E091CC
S11306A07300F0E08091AB039091AC03A091AD0393
S11306B0B091AE03EE0FFF1FEE0FFF1FEC58FF4F7C
S11306C080839183A283B383809173008093AA0370
S11306D008951092AA031092A90310927300A5E141
S11306E0B1E0E9E2F1E08D91819381E0E933F8072B
S11306F0D1F78091AB039091AC03A091AD03B0917D
S1130700AE038093740090937500A0937600B09329
S1130710770008959091AA038091A9039817D1F0C6
S11307208091AA0390E0879668E270E00E944A0AEA
S11307308093AA03A091AA0380E1A89FD001112469
S1130740A75DBE4FE5E1F1E08D91819381E0E53253
S1130750F807D1F7E091AA03F0E0EE0FFF1FEE0FC8
S1130760FF1FEC58FF4F80819181A281B381809358
S1130770AB039093AC03A093AD03B093AE03089581
S11307809091AA03809173009817D1F08091AA03E5
S113079090E0019668E270E00E944A0A8093AA03FE
S11307A0A091AA0380E1A89FD0011124A75DBE4FA8
S11307B0E5E1F1E08D91819381E0E532F807D1F72D
S11307C0E091AA03F0E0EE0FFF1FEE0FFF1FEC58BD
S11307D0FF4F80819181A281B3818093AB03909379
S11307E0AC03A093AD03B093AE0308952F923F9250
S11307F04F925F926F927F928F929F92AF92BF922D
S1130800CF92DF92EF92FF920F931F93CF93DF93D8
S1130810CDB7DEB76F970FB6F894DEBF0FBECDBF6E
S1130820898BFE01319680E1DF011D928A95E9F7FB
S11308300F2EF3E08F2EF02D912C312C212CB98921
S1130840B13009F46CC108F4B4C0B23009F43FC249
S1130850B33009F01BC3F2C2BC01AC01440F551FF5
S1130860440F551F420F531F4B5E5E4FDA014C91EC
S1130870442309F488C0AC01440F551F440F551F8D
S1130880400F511F4B5E5E4FDA014C9141111AC06B
S1130890660F771F660F771FAB01420F531F4B5E26
S11308A05E4FDA01FC90600F711F6B5E7E4FDB01BF
S11308B0FC926081AE89BF896C93DA011C9210822C
S11308C0939461C0AC01440F551F440F551F7A0126
S11308D0E00EF11E0F2EF5E14F2EF1E05F2EF02D0C
S11308E0E40CF51CD701FC90420F531F440D551D19
S11308F0DA014C91F41247C0EE88FF88D7014C917D
S1130900411141C0408141113EC02C01440C551C91
S1130910440C551C5B8A4A8AA201400F511F4B5E4E
S11309205E4FDA016C916F5F6C934C914090AB0316
S11309305090AC036090AD037090AE0362E070E041
S113094002C0660F771F4A95E2F7AB01662757FD91
S11309506095762F440D551D661D771D4093AB039E
S11309605093AC036093AD037093AE036A897B89A3
S1130970620F731F6B5E7E4FDB011C924424439411
S1130980D7014C929394019634964E895F894C5FBB
S11309905F4F5F8B4E8B8430910509F05DCFB601BC
S11309A06F5F7F4F5FEFA51AB50A6330710531F4AD
S11309B06DC2AA24A394B12C60E070E09501E1E03B
S11309C0F0E0EC0FFD1FEA0DFB1D8B01A1E0B0E090
S11309D0AC0FBD1FA60FB71F832D922DBF8BAE8BFF
S11309E06B013ACF9C01BA01680F791F6B5E7E4F91
S11309F0DB016C91662309F47AC0B801680F791F92
S1130A006B5E7E4FDB016C91611116C0BA01680FF9
S1130A10791F6B5E7E4FDB01DC90200F311F2B5E54
S1130A203E4FD901DC922081AA8DBB8D2C93DB0132
S1130A301C92108293945BC0B801680F791F6B5E9F
S1130A407E4FDB01DC90BA01680F791F6B5E7E4F2D
S1130A50DB016C91D6124BC04A8C5B8C5D8E4C8E44
S1130A60D2016C91611143C06081611140C0B80131
S1130A70680F791F6B5E7E4FDB017C9073947C92D0
S1130A806C914090AB035090AC036090AD037090B8
S1130A90AE034E8A5F8A688E798E6894662461F804
S1130AA0712C02C0660C771C6A95E2F76301EE2490
S1130AB0D7FCE094FE2C4E885F88688C798C4C0CB3
S1130AC05D1C6E1C7F1C4092AB035092AC03609281
S1130AD0AD037092AE03240F351F2B5E3E4FD90138
S1130AE01C9244244394AC8DBD8D4C9293940196F6
S1130AF031962A8D3B8D2F5F3F4F3B8F2A8F843059
S1130B00910509F06FCF6E8D7F8D6150710931E0D1
S1130B10A31AB1086F3F4FEF740741F4B7C10F2E0A
S1130B20F3E0AF2EB12CF02D62E070E0FB01EE0F8C
S1130B30FF1FEE0FFF1F81E090E08C0F9D1FE80F59
S1130B40F91FD501AA0FBB1FAA0FBB1FA80FB91FFE
S1130B50832D922DAB01440F551F440F551F850162
S1130B60000F111F000F111F7F8F6E8FBB8FAA8F75
S1130B7039CFBC01AC01440F551F440F551F420F20
S1130B80531F4B5E5E4FDA014C91442309F488C035
S1130B90AC01440F551F440F551F400F511F4B5EAE
S1130BA05E4FDA014C9141111AC0660F771F660F30
S1130BB0771FAB01420F531F4B5E5E4FDA01FC906F
S1130BC0600F711F6B5E7E4FDB01FC926081AE890A
S1130BD0BF896C93DA011C921082939461C0AC01BA
S1130BE0440F551F440F551F7A01E00EF11E0F2EBE
S1130BF0F5E14F2EF1E05F2EF02DE40CF51CD7014A
S1130C00FC90420F531F440D551DDA014C91F41210
S1130C1047C0EE88FF88D7014C91411141C0408103
S1130C2041113EC02C01440C551C440C551C5B8ADC
S1130C304A8AA201400F511F4B5E5E4FDA016C914C
S1130C406F5F6C934C914090AB035090AC036090F9
S1130C50AD037090AE0362E070E002C0660F771FD0
S1130C604A95E2F7AB01662757FD6095762F440D50
S1130C70551D661D771D4093AB035093AC036093E1
S1130C80AD037093AE036A897B89620F731F6B5E39
S1130C907E4FDB011C9244244394D7014C929394DD
S1130CA0019634964E895F894C5F5F4F5F8B4E8B04
S1130CB08430910509F05DCFB6016150710951E0AE
S1130CC0A51AB1086F3F8FEF780741F4DFC00F2EEC
S1130CD0F3E0AF2EB12CF02D62E070E09B01E1E077
S1130CE0F0E0EC0FFD1FE60FF71F8501A1E0B0E077
S1130CF0AC0FBD1FAA0DBB1D832D922DBF8BAE8BD8
S1130D006B0137CF9C01BA01680F791F6B5E7E4F70
S1130D10DB016C91662309F47AC0B801680F791F6E
S1130D206B5E7E4FDB016C91611116C0BA01680FD6
S1130D30791F6B5E7E4FDB01DC90200F311F2B5E31
S1130D403E4FD901DC922081AA8DBB8D2C93DB010F
S1130D501C92108293945BC0B801680F791F6B5E7C
S1130D607E4FDB01DC90BA01680F791F6B5E7E4F0A
S1130D70DB016C91D6124BC04A8C5B8C5D8E4C8E21
S1130D80D2016C91611143C06081611140C0B8010E
S1130D90680F791F6B5E7E4FDB017C9073947C92AD
S1130DA06C914090AB035090AC036090AD03709095
S1130DB0AE034E8A5F8A688E798E6894662461F8E1
S1130DC0712C02C0660C771C6A95E2F76301EE246D
S1130DD0D7FCE094FE2C4E885F88688C798C4C0C90
S1130DE05D1C6E1C7F1C4092AB035092AC0360925E
S1130DF0AD037092AE03240F351F2B5E3E4FD90115
S1130E001C9244244394AC8DBD8D4C9293940196D2
S1130E1031962A8D3B8D2F5F3F4F3B8F2A8F843035
S1130E20910509F06FCF6E8D7F8D6F5F7F4F3FEF20
S1130E30A31AB30A6330710531F428C0AA24A39419
S1130E40B12C60E070E0F501EE0FFF1FEE0FFF1F05
S1130E5041E050E04C0F5D1FE40FF51FDB01AA0FCA
S1130E60BB1FAA0FBB1FA40FB51F832D922DA50175
S1130E70440F551F440F551F8B01000F111F000F06
S1130E80111FBB8FAA8F7F8F6E8F3CCF0E94F10200
S1130E9060E570E080E090E00E9480008A9409F0B0
S1130EA0CECC892D6F960FB6F894DEBF0FBECDBFA2
S1130EB0DF91CF911F910F91FF90EF90DF90CF9032
S1130EC0BF90AF909F908F907F906F905F904F9066
S1130ED03F902F9008950F931F93CF93DF930E9419
S1130EE0F70AD82FC92F0E94F70A2D2F3C2F33233E
S1130EF014F42150304E890108E01002012D110B29
S1130F0011241127282F392F332314F42150304E64
S1130F10E901C8E0DC02C12DDD0B1124DD27F80155
S1130F20EE0FFF1FEE0FFF1FEC0FFD1FEB5EFE4FDA
S1130F3080818111D4CF0E94F70A6DEC7CE00E947D
S1130F404A0A693058F4000F111F000F111FC00F17
S1130F50D11FCB5EDE4F81E088830AC0000F111FD2
S1130F60000F111FC00FD11FCB5EDE4F82E08883BC
S1130F70DF91CF911F910F91089540E150E060E01F
S1130F8070E085E191E00E94250B4091AB03509104
S1130F90AC036091AD037091AE0380E190E00E94D8
S1130FA03C0B08950F931F93CF93DF9310E0C0E0A1
S1130FB0D0E003E0CE010E94170B882329F0823190
S1130FC010F4116001C0102F2196C031D10511F029
S1130FD011FFF0CF1130B1F440E150E060E070E077
S1130FE085E191E00E94070B80E190E00E941F0BD5
S1130FF06093AB037093AC038093AD039093AE0303
S11310000E946903DF91CF911F910F9108951F935F
S1131010CF93DF9320E030E0C1E090E081E0D0E0C6
S113102011E0B901492F50E0F901EE0FFF1FEE0F57
S1131030FF1FE40FF51FEB5EFE4FE081E11101C0DD
S11310408D2F222339F1F9013197DF01AA0FBB1F3C
S1131050AA0FBB1FA40FB51FAB5EBE4FAC91AA2352
S1131060B1F0EE0FFF1FEE0FFF1FE40FF51FEB5E55
S1131070FE4FA081FB01EE0FFF1FEE0FFF1FE40FD9
S1131080F51FEB5EFE4FE081AE1304C002C08D2F4E
S113109001C08D2F992309F1FA013197DB01AA0FC1
S11310A0BB1FAA0FBB1FAE0FBF1FAB5EBE4FAC91E1
S11310B0AA23C1F0660F771F660F771FE60FF71F8D
S11310C0EB5EFE4FA081640F751FFB01EB5EFE4FCC
S11310D04081A41749F0C43040F49F5FCF5F811171
S11310E0A0CF0CC08D2F01C08D2F2330310531F0DE
S11310F02F5F3F4F9D2FC12F811193CFDF91CF9150
S11311001F910895FF920F931F93CF93DF930E9433
S1131110F102F12C50E0C0E0D0E011E000E022C088
S1131120CE01252F30E0220F331F220F331F220F51
S1131130331FF901E80FF91FE155FC4F40814423A7
S113114049F0F901E80FF91FE155FC4F4081415086
S11311504083F12E01968830910559F75F5F02C0F4
S1131160F02E502F5630E0F264E670E080E090E01C
S11311700E94800081E0F81699F3DF91CF911F91CE
S11311800F91FF9008950E945B000E949E000E94B0
S11311906A00C1E000E0F02E16C04C2F612F8D2FA5
S11311A00E94C4011F5F1430C1F7DF5FD43011F017
S11311B01F2DF3CF68EC70E080E090E00E94800087
S11311C0CF5FC43011F0D02FF3CF0E9478000E947B
S11311D06A0081E08093190182E08093230183E017
S11311E080931701CF9B50C00F2EF6E14F2EF1E0F4
S11311F05F2EF02D0F2EF7E16F2EF1E07F2EF02DF4
S11312000F2EFCE18F2EF1E09F2EF02D0F2EF0E239
S1131210AF2EF1E0BF2EF02D03E211E0C2E2D1E0E7
S11312200F2EFDE1CF2EF1E0DF2EF02D0F2EF9E190
S1131230EF2EF1E0FF2EF02DF2018081F301908179
S1131240F2019083F4019081F3019083F501908180
S1131250F4019083F8019081F50190839881F8015D
S11312609083F60190819883F7019081F601908331
S1131270F70180830E94F10264E670E080E090E070
S11312800E948000CF99D8CF8091250190912601AA
S1131290A0912701B091280120916A00982F8827F6
S11312A0990F990F822B0E94FC0A0E946A001092E7
S11312B0AB031092AC031092AD031092AE030E94E4
S11312C06B070E946B070E9469030E94F102CF9B87
S11312D0FECF62E370E080E090E00E948000CFEAFD
S11312E0D3E01AE00E94F10264E670E080E090E04E
S11312F00E948000CC9910C080E00E94F6038823ED
S113130049F00E946B070E94070881110E9482081D
S11313100E942403CC9BFECFCE9910C081E00E9492
S1131320F603882349F00E946B070E940708811185
S11313300E9482080E942403CE9BFECFC89910C04D
S113134082E00E94F603882349F00E946B070E9402
S1131350070881110E9482080E942403C89BFECFC3
S1131360CB9910C083E00E94F603882349F00E94C1
S11313706B070E94070881110E9482080E942403BF
S1131380CB9BFECFCF9918C00E946A000E946B07C6
S11313900E946B070E9469030E94F102CF9902C068
S11313A0C999FCCFC99908C00E94D2070E94F102D2
S11313B0CF9BFECFC99BFCCFCA9912C00E948A035F
S11313C00E94F10262E370E080E090E00E948000FD
S11313D0CA9BFECF62E370E080E090E00E94800050
S11313E0CD9912C00E94C0030E94F10262E370E032
S11313F080E090E00E948000CA9BFECF62E370E030
S113140080E090E00E948000C9996CCFC0902501D3
S1131410D0902601E0902701F0902801F0EDCF0E46
S1131420F7E0DF1EE11CF11C62E370E080E090E075
S11314300E948000C9990DC08091250190912601D8
S1131440A0912701B09128018C159D05AE05BF051B
S113145088F38091250190912601A0912701B091F4
S113146028018C159D05AE05BF0508F43BCF0E94ED
S1131470BD07FE01119383E0EF3DF807D9F764E659
S113148070E080E090E00E9480000E94F102C99B1D
S1131490FECF28CF97FB072E16F4009407D077FDD4
S11314A009D00E94920A07FC05D03EF490958195DC
S11314B09F4F0895709561957F4F0895A1E21A2E6C
S11314C0AA1BBB1BFD010DC0AA1FBB1FEE1FFF1FE4
S11314D0A217B307E407F50720F0A21BB30BE40B34
S11314E0F50B661F771F881F991F1A9469F760957B
S11314F07095809590959B01AC01BD01CF01089535
S1131500EE0FFF1F0590F491E02D0994A29FB00106
S1131510B39FC001A39F01D0B29F700D811D112400
S1131520911D0895AA1BBB1B51E107C0AA1FBB1F35
S1131530A617B70710F0A61BB70B881F991F5A955B
S1131540A9F780959095BC01CD0108958F929F9243
S1131550AF92BF92CF92DF92EF92FF92CF93DF933D
S1131560EC01688179818A819B816115710581050E
S1131570910521F464E279ED8BE597E02DE133EFF9
S113158041E050E00E94490B49015A019B01AC0122
S1131590A7EAB1E40E94650B6B017C01ACEEB4EFE9
S11315A0A50194010E94730BC60ED71EE81EF91EF6
S11315B0F7FE06C081E0C81AD108E10880E8F80AFD
S11315C0C882D982EA82FB82E894D7F8EE24FF2409
S11315D0C601DF91CF91FF90EF90DF90CF90BF9045
S11315E0AF909F908F9008950E94A60A089580E678
S11315F090E00E94A60A0895A0E0B0E08093600005
S113160090936100A0936200B09363000895DC019D
S1131610CB01FC01E199FECF06C0FFBBEEBBE09A13
S113162031960DB20D9241505040B8F70895E199AA
S1131630FECF9FBB8EBBE09A99278DB30895A6E198
S1131640B0E044E050E00C94090BDC01CB0103C092
S11316502D910E94300B41505040D0F70895262F11
S1131660E199FECF9FBB8EBB2DBB0FB6F894E29AD7
S1131670E19A0FBE01960895242F0E94300B252F66
S11316800E94300B0C94440B0E942F0B272F0C94B8
S1131690300B052E97FB16F4009407D057FD0DD0A0
S11316A00E945E0A07FC09D07EF49095809570959F
S11316B061957F4F8F4F9F4F08955095409530957A
S11316C021953F4F4F4F5F4F08950E94860AA59F73
S11316D0900DB49F900DA49F800D911D1124089529
S11316E0B7FF0C94650B0E94650B821B930B089546
S10716F0F894FFCF98
S10D16F401000000402080080410EB
S9030000FC
